{
  "_format": "hh-sol-artifact-1",
  "contractName": "CardTransactionRegistry",
  "sourceName": "contracts/CardTransactionRegistry.sol",
  "abi": [
    {
      "inputs": [],
      "name": "getAllTransactions",
      "outputs": [
        {
          "internalType": "string[]",
          "name": "cardIds",
          "type": "string[]"
        },
        {
          "internalType": "string[]",
          "name": "receiverAddressesW",
          "type": "string[]"
        },
        {
          "internalType": "string[]",
          "name": "receiverAddressesR",
          "type": "string[]"
        },
        {
          "internalType": "string[]",
          "name": "dates",
          "type": "string[]"
        },
        {
          "internalType": "string[]",
          "name": "distances",
          "type": "string[]"
        },
        {
          "internalType": "string[]",
          "name": "pricePerUnits",
          "type": "string[]"
        },
        {
          "internalType": "string[]",
          "name": "statuses",
          "type": "string[]"
        }
      ],
      "stateMutability": "view",
      "type": "function"
    },
    {
      "inputs": [
        {
          "internalType": "string",
          "name": "_cardId",
          "type": "string"
        },
        {
          "internalType": "string",
          "name": "_receiverAddressW",
          "type": "string"
        },
        {
          "internalType": "string",
          "name": "_receiverAddressR",
          "type": "string"
        },
        {
          "internalType": "string",
          "name": "_date",
          "type": "string"
        },
        {
          "internalType": "string",
          "name": "_distance",
          "type": "string"
        },
        {
          "internalType": "string",
          "name": "_pricePerUnit",
          "type": "string"
        }
      ],
      "name": "registerCardTransaction",
      "outputs": [],
      "stateMutability": "nonpayable",
      "type": "function"
    },
    {
      "inputs": [
        {
          "internalType": "string",
          "name": "_cardId",
          "type": "string"
        },
        {
          "internalType": "string",
          "name": "_date",
          "type": "string"
        },
        {
          "internalType": "string",
          "name": "_distance",
          "type": "string"
        },
        {
          "internalType": "string",
          "name": "_receiverAddressW",
          "type": "string"
        },
        {
          "internalType": "string",
          "name": "_receiverAddressR",
          "type": "string"
        },
        {
          "internalType": "string",
          "name": "_pricePerUnit",
          "type": "string"
        }
      ],
      "name": "searchCardTransactionR",
      "outputs": [],
      "stateMutability": "nonpayable",
      "type": "function"
    },
    {
      "inputs": [
        {
          "internalType": "string",
          "name": "_cardId",
          "type": "string"
        },
        {
          "internalType": "string",
          "name": "_date",
          "type": "string"
        },
        {
          "internalType": "string",
          "name": "_distance",
          "type": "string"
        },
        {
          "internalType": "string",
          "name": "_receiverAddressW",
          "type": "string"
        },
        {
          "internalType": "string",
          "name": "_receiverAddressR",
          "type": "string"
        },
        {
          "internalType": "string",
          "name": "_pricePerUnit",
          "type": "string"
        }
      ],
      "name": "searchCardTransactionW",
      "outputs": [],
      "stateMutability": "nonpayable",
      "type": "function"
    },
    {
      "inputs": [
        {
          "internalType": "string",
          "name": "_cardId",
          "type": "string"
        },
        {
          "internalType": "string",
          "name": "_date",
          "type": "string"
        },
        {
          "internalType": "string",
          "name": "_distance",
          "type": "string"
        },
        {
          "internalType": "string",
          "name": "_receiverAddressW",
          "type": "string"
        },
        {
          "internalType": "string",
          "name": "_receiverAddressR",
          "type": "string"
        },
        {
          "internalType": "string",
          "name": "_pricePerUnit",
          "type": "string"
        }
      ],
      "name": "searchCardTransactionWR",
      "outputs": [],
      "stateMutability": "nonpayable",
      "type": "function"
    }
  ],
  "bytecode": "0x608060405234801561001057600080fd5b506128da806100206000396000f3fe608060405234801561001057600080fd5b50600436106100575760003560e01c806327506f531461005c5780638bb8aa4314610080578063a10e6abf1461009c578063b2c765ac146100b8578063b8760315146100d4575b600080fd5b6100646100f0565b6040516100779796959493929190612498565b60405180910390f35b61009a60048036038101906100959190611f07565b610b10565b005b6100b660048036038101906100b19190611f07565b610f94565b005b6100d260048036038101906100cd9190611f07565b611418565b005b6100ee60048036038101906100e99190611f07565b611662565b005b60608060608060608060606000600180549050905060008167ffffffffffffffff811115610147577f4e487b7100000000000000000000000000000000000000000000000000000000600052604160045260246000fd5b60405190808252806020026020018201604052801561017a57816020015b60608152602001906001900390816101655790505b50905060008267ffffffffffffffff8111156101bf577f4e487b7100000000000000000000000000000000000000000000000000000000600052604160045260246000fd5b6040519080825280602002602001820160405280156101f257816020015b60608152602001906001900390816101dd5790505b50905060008367ffffffffffffffff811115610237577f4e487b7100000000000000000000000000000000000000000000000000000000600052604160045260246000fd5b60405190808252806020026020018201604052801561026a57816020015b60608152602001906001900390816102555790505b50905060008467ffffffffffffffff8111156102af577f4e487b7100000000000000000000000000000000000000000000000000000000600052604160045260246000fd5b6040519080825280602002602001820160405280156102e257816020015b60608152602001906001900390816102cd5790505b50905060008567ffffffffffffffff811115610327577f4e487b7100000000000000000000000000000000000000000000000000000000600052604160045260246000fd5b60405190808252806020026020018201604052801561035a57816020015b60608152602001906001900390816103455790505b50905060008667ffffffffffffffff81111561039f577f4e487b7100000000000000000000000000000000000000000000000000000000600052604160045260246000fd5b6040519080825280602002602001820160405280156103d257816020015b60608152602001906001900390816103bd5790505b50905060008767ffffffffffffffff811115610417577f4e487b7100000000000000000000000000000000000000000000000000000000600052604160045260246000fd5b60405190808252806020026020018201604052801561044a57816020015b60608152602001906001900390816104355790505b50905060005b88811015610ae957600060018281548110610494577f4e487b7100000000000000000000000000000000000000000000000000000000600052603260045260246000fd5b9060005260206000200180546104a99061278b565b80601f01602080910402602001604051908101604052809291908181526020018280546104d59061278b565b80156105225780601f106104f757610100808354040283529160200191610522565b820191906000526020600020905b81548152906001019060200180831161050557829003601f168201915b505050505090506000808260405161053a919061246a565b90815260200160405180910390206040518060e00160405290816000820180546105639061278b565b80601f016020809104026020016040519081016040528092919081815260200182805461058f9061278b565b80156105dc5780601f106105b1576101008083540402835291602001916105dc565b820191906000526020600020905b8154815290600101906020018083116105bf57829003601f168201915b505050505081526020016001820180546105f59061278b565b80601f01602080910402602001604051908101604052809291908181526020018280546106219061278b565b801561066e5780601f106106435761010080835404028352916020019161066e565b820191906000526020600020905b81548152906001019060200180831161065157829003601f168201915b505050505081526020016002820180546106879061278b565b80601f01602080910402602001604051908101604052809291908181526020018280546106b39061278b565b80156107005780601f106106d557610100808354040283529160200191610700565b820191906000526020600020905b8154815290600101906020018083116106e357829003601f168201915b505050505081526020016003820180546107199061278b565b80601f01602080910402602001604051908101604052809291908181526020018280546107459061278b565b80156107925780601f1061076757610100808354040283529160200191610792565b820191906000526020600020905b81548152906001019060200180831161077557829003601f168201915b505050505081526020016004820180546107ab9061278b565b80601f01602080910402602001604051908101604052809291908181526020018280546107d79061278b565b80156108245780601f106107f957610100808354040283529160200191610824565b820191906000526020600020905b81548152906001019060200180831161080757829003601f168201915b505050505081526020016005820160009054906101000a900460ff166003811115610878577f4e487b7100000000000000000000000000000000000000000000000000000000600052602160045260246000fd5b60038111156108b0577f4e487b7100000000000000000000000000000000000000000000000000000000600052602160045260246000fd5b81526020016005820160019054906101000a900460ff1615151515815250509050818a848151811061090b577f4e487b7100000000000000000000000000000000000000000000000000000000600052603260045260246000fd5b60200260200101819052508060000151898481518110610954577f4e487b7100000000000000000000000000000000000000000000000000000000600052603260045260246000fd5b6020026020010181905250806020015188848151811061099d577f4e487b7100000000000000000000000000000000000000000000000000000000600052603260045260246000fd5b602002602001018190525080604001518784815181106109e6577f4e487b7100000000000000000000000000000000000000000000000000000000600052603260045260246000fd5b60200260200101819052508060600151868481518110610a2f577f4e487b7100000000000000000000000000000000000000000000000000000000600052603260045260246000fd5b60200260200101819052508060800151858481518110610a78577f4e487b7100000000000000000000000000000000000000000000000000000000600052603260045260246000fd5b6020026020010181905250610a908160a00151611ae5565b848481518110610ac9577f4e487b7100000000000000000000000000000000000000000000000000000000600052603260045260246000fd5b602002602001018190525050508080610ae1906127bd565b915050610450565b50868686868686869e509e509e509e509e509e509e50505050505050505090919293949596565b600086604051610b20919061246a565b908152602001604051809103902060050160019054906101000a900460ff16610b7e576040517f08c379a0000000000000000000000000000000000000000000000000000000008152600401610b75906125f8565b60405180910390fd5b60008087604051610b8f919061246a565b9081526020016040518091039020905060006003811115610bd9577f4e487b7100000000000000000000000000000000000000000000000000000000600052602160045260246000fd5b8160050160009054906101000a900460ff166003811115610c23577f4e487b7100000000000000000000000000000000000000000000000000000000600052602160045260246000fd5b14610c63576040517f08c379a0000000000000000000000000000000000000000000000000000000008152600401610c5a90612598565b60405180910390fd5b85604051602001610c74919061246a565b6040516020818303038152906040528051906020012081600201604051602001610c9e9190612481565b6040516020818303038152906040528051906020012014610cf4576040517f08c379a0000000000000000000000000000000000000000000000000000000008152600401610ceb90612638565b60405180910390fd5b84604051602001610d05919061246a565b6040516020818303038152906040528051906020012081600301604051602001610d2f9190612481565b6040516020818303038152906040528051906020012014610d85576040517f08c379a0000000000000000000000000000000000000000000000000000000008152600401610d7c906125b8565b60405180910390fd5b83604051602001610d96919061246a565b6040516020818303038152906040528051906020012081600001604051602001610dc09190612481565b6040516020818303038152906040528051906020012014610e16576040517f08c379a0000000000000000000000000000000000000000000000000000000008152600401610e0d90612558565b60405180910390fd5b82604051602001610e27919061246a565b6040516020818303038152906040528051906020012081600101604051602001610e519190612481565b6040516020818303038152906040528051906020012014610ea7576040517f08c379a0000000000000000000000000000000000000000000000000000000008152600401610e9e906125d8565b60405180910390fd5b81604051602001610eb8919061246a565b6040516020818303038152906040528051906020012081600401604051602001610ee29190612481565b6040516020818303038152906040528051906020012014610f38576040517f08c379a0000000000000000000000000000000000000000000000000000000008152600401610f2f90612538565b60405180910390fd5b60038160050160006101000a81548160ff02191690836003811115610f86577f4e487b7100000000000000000000000000000000000000000000000000000000600052602160045260246000fd5b021790555050505050505050565b600086604051610fa4919061246a565b908152602001604051809103902060050160019054906101000a900460ff16611002576040517f08c379a0000000000000000000000000000000000000000000000000000000008152600401610ff9906125f8565b60405180910390fd5b60008087604051611013919061246a565b908152602001604051809103902090506001600381111561105d577f4e487b7100000000000000000000000000000000000000000000000000000000600052602160045260246000fd5b8160050160009054906101000a900460ff1660038111156110a7577f4e487b7100000000000000000000000000000000000000000000000000000000600052602160045260246000fd5b146110e7576040517f08c379a00000000000000000000000000000000000000000000000000000000081526004016110de90612578565b60405180910390fd5b856040516020016110f8919061246a565b60405160208183030381529060405280519060200120816002016040516020016111229190612481565b6040516020818303038152906040528051906020012014611178576040517f08c379a000000000000000000000000000000000000000000000000000000000815260040161116f90612638565b60405180910390fd5b84604051602001611189919061246a565b60405160208183030381529060405280519060200120816003016040516020016111b39190612481565b6040516020818303038152906040528051906020012014611209576040517f08c379a0000000000000000000000000000000000000000000000000000000008152600401611200906125b8565b60405180910390fd5b8360405160200161121a919061246a565b60405160208183030381529060405280519060200120816000016040516020016112449190612481565b604051602081830303815290604052805190602001201461129a576040517f08c379a000000000000000000000000000000000000000000000000000000000815260040161129190612558565b60405180910390fd5b826040516020016112ab919061246a565b60405160208183030381529060405280519060200120816001016040516020016112d59190612481565b604051602081830303815290604052805190602001201461132b576040517f08c379a0000000000000000000000000000000000000000000000000000000008152600401611322906125d8565b60405180910390fd5b8160405160200161133c919061246a565b60405160208183030381529060405280519060200120816004016040516020016113669190612481565b60405160208183030381529060405280519060200120146113bc576040517f08c379a00000000000000000000000000000000000000000000000000000000081526004016113b390612538565b60405180910390fd5b60028160050160006101000a81548160ff0219169083600381111561140a577f4e487b7100000000000000000000000000000000000000000000000000000000600052602160045260246000fd5b021790555050505050505050565b600086604051611428919061246a565b908152602001604051809103902060050160019054906101000a900460ff1615611487576040517f08c379a000000000000000000000000000000000000000000000000000000000815260040161147e90612618565b60405180910390fd5b6040518060e00160405280868152602001858152602001848152602001838152602001828152602001600060038111156114ea577f4e487b7100000000000000000000000000000000000000000000000000000000600052602160045260246000fd5b815260200160011515815250600087604051611506919061246a565b90815260200160405180910390206000820151816000019080519060200190611530929190611dfc565b50602082015181600101908051906020019061154d929190611dfc565b50604082015181600201908051906020019061156a929190611dfc565b506060820151816003019080519060200190611587929190611dfc565b5060808201518160040190805190602001906115a4929190611dfc565b5060a08201518160050160006101000a81548160ff021916908360038111156115f6577f4e487b7100000000000000000000000000000000000000000000000000000000600052602160045260246000fd5b021790555060c08201518160050160016101000a81548160ff021916908315150217905550905050600186908060018154018082558091505060019003906000526020600020016000909190919091509080519060200190611659929190611dfc565b50505050505050565b600086604051611672919061246a565b908152602001604051809103902060050160019054906101000a900460ff166116d0576040517f08c379a00000000000000000000000000000000000000000000000000000000081526004016116c7906125f8565b60405180910390fd5b600080876040516116e1919061246a565b9081526020016040518091039020905060038081111561172a577f4e487b7100000000000000000000000000000000000000000000000000000000600052602160045260246000fd5b8160050160009054906101000a900460ff166003811115611774577f4e487b7100000000000000000000000000000000000000000000000000000000600052602160045260246000fd5b146117b4576040517f08c379a00000000000000000000000000000000000000000000000000000000081526004016117ab90612598565b60405180910390fd5b856040516020016117c5919061246a565b60405160208183030381529060405280519060200120816002016040516020016117ef9190612481565b6040516020818303038152906040528051906020012014611845576040517f08c379a000000000000000000000000000000000000000000000000000000000815260040161183c90612638565b60405180910390fd5b84604051602001611856919061246a565b60405160208183030381529060405280519060200120816003016040516020016118809190612481565b60405160208183030381529060405280519060200120146118d6576040517f08c379a00000000000000000000000000000000000000000000000000000000081526004016118cd906125b8565b60405180910390fd5b836040516020016118e7919061246a565b60405160208183030381529060405280519060200120816000016040516020016119119190612481565b6040516020818303038152906040528051906020012014611967576040517f08c379a000000000000000000000000000000000000000000000000000000000815260040161195e90612558565b60405180910390fd5b82604051602001611978919061246a565b60405160208183030381529060405280519060200120816001016040516020016119a29190612481565b60405160208183030381529060405280519060200120146119f8576040517f08c379a00000000000000000000000000000000000000000000000000000000081526004016119ef906125d8565b60405180910390fd5b81604051602001611a09919061246a565b6040516020818303038152906040528051906020012081600401604051602001611a339190612481565b6040516020818303038152906040528051906020012014611a89576040517f08c379a0000000000000000000000000000000000000000000000000000000008152600401611a8090612538565b60405180910390fd5b60018160050160006101000a81548160ff02191690836003811115611ad7577f4e487b7100000000000000000000000000000000000000000000000000000000600052602160045260246000fd5b021790555050505050505050565b606060006003811115611b21577f4e487b7100000000000000000000000000000000000000000000000000000000600052602160045260246000fd5b826003811115611b5a577f4e487b7100000000000000000000000000000000000000000000000000000000600052602160045260246000fd5b1415611b9d576040518060400160405280601581526020017f494e5f5452414e5349545f57484f4c4553414c455200000000000000000000008152509050611df7565b60016003811115611bd7577f4e487b7100000000000000000000000000000000000000000000000000000000600052602160045260246000fd5b826003811115611c10577f4e487b7100000000000000000000000000000000000000000000000000000000600052602160045260246000fd5b1415611c53576040518060400160405280601381526020017f494e5f5452414e5349545f52455441494c4552000000000000000000000000008152509050611df7565b60026003811115611c8d577f4e487b7100000000000000000000000000000000000000000000000000000000600052602160045260246000fd5b826003811115611cc6577f4e487b7100000000000000000000000000000000000000000000000000000000600052602160045260246000fd5b1415611d09576040518060400160405280600981526020017f44454c49564552454400000000000000000000000000000000000000000000008152509050611df7565b600380811115611d42577f4e487b7100000000000000000000000000000000000000000000000000000000600052602160045260246000fd5b826003811115611d7b577f4e487b7100000000000000000000000000000000000000000000000000000000600052602160045260246000fd5b1415611dbe576040518060400160405280601381526020017f57484f4c4553414c45525f5245434549564544000000000000000000000000008152509050611df7565b6040518060400160405280600e81526020017f696e76616c69645f73746174757300000000000000000000000000000000000081525090505b919050565b828054611e089061278b565b90600052602060002090601f016020900481019282611e2a5760008555611e71565b82601f10611e4357805160ff1916838001178555611e71565b82800160010185558215611e71579182015b82811115611e70578251825591602001919060010190611e55565b5b509050611e7e9190611e82565b5090565b5b80821115611e9b576000816000905550600101611e83565b5090565b6000611eb2611ead84612689565b612658565b905082815260208101848484011115611eca57600080fd5b611ed5848285612749565b509392505050565b600082601f830112611eee57600080fd5b8135611efe848260208601611e9f565b91505092915050565b60008060008060008060c08789031215611f2057600080fd5b600087013567ffffffffffffffff811115611f3a57600080fd5b611f4689828a01611edd565b965050602087013567ffffffffffffffff811115611f6357600080fd5b611f6f89828a01611edd565b955050604087013567ffffffffffffffff811115611f8c57600080fd5b611f9889828a01611edd565b945050606087013567ffffffffffffffff811115611fb557600080fd5b611fc189828a01611edd565b935050608087013567ffffffffffffffff811115611fde57600080fd5b611fea89828a01611edd565b92505060a087013567ffffffffffffffff81111561200757600080fd5b61201389828a01611edd565b9150509295509295509295565b600061202c83836120a9565b905092915050565b600061203f826126de565b6120498185612701565b93508360208202850161205b856126b9565b8060005b8581101561209757848403895281516120788582612020565b9450612083836126f4565b925060208a0199505060018101905061205f565b50829750879550505050505092915050565b60006120b4826126e9565b6120be8185612712565b93506120ce818560208601612758565b6120d781612893565b840191505092915050565b60006120ed826126e9565b6120f78185612734565b9350612107818560208601612758565b80840191505092915050565b600081546121208161278b565b61212a8186612734565b94506001821660008114612145576001811461215657612189565b60ff19831686528186019350612189565b61215f856126c9565b60005b8381101561218157815481890152600182019150602081019050612162565b838801955050505b50505092915050565b600061219f601783612723565b91507f50726963652070657220756e6974206d69736d617463680000000000000000006000830152602082019050919050565b60006121df601b83612723565b91507f77686f6c6573616c65722061646472657373206d69736d6174636800000000006000830152602082019050919050565b600061221f602783612723565b91507f7374617475732073686f756c6420626520696e207472616e73697420746f207260008301527f657461696c6572000000000000000000000000000000000000000000000000006020830152604082019050919050565b6000612285602983612723565b91507f7374617475732073686f756c6420626520696e207472616e73697420746f207760008301527f686f6c6573616c657200000000000000000000000000000000000000000000006020830152604082019050919050565b60006122eb601183612723565b91507f44697374616e6365206d69736d617463680000000000000000000000000000006000830152602082019050919050565b600061232b601983612723565b91507f52656365697665722061646472657373206d69736d61746368000000000000006000830152602082019050919050565b600061236b602d83612723565b91507f5472616e73616374696f6e20776974682074686973206361726420494420646f60008301527f6573206e6f7420657869737421000000000000000000000000000000000000006020830152604082019050919050565b60006123d1602d83612723565b91507f5472616e73616374696f6e20776974682074686973206361726420494420616c60008301527f72656164792065786973747321000000000000000000000000000000000000006020830152604082019050919050565b6000612437600d83612723565b91507f44617465206d69736d61746368000000000000000000000000000000000000006000830152602082019050919050565b600061247682846120e2565b915081905092915050565b600061248d8284612113565b915081905092915050565b600060e08201905081810360008301526124b2818a612034565b905081810360208301526124c68189612034565b905081810360408301526124da8188612034565b905081810360608301526124ee8187612034565b905081810360808301526125028186612034565b905081810360a08301526125168185612034565b905081810360c083015261252a8184612034565b905098975050505050505050565b6000602082019050818103600083015261255181612192565b9050919050565b60006020820190508181036000830152612571816121d2565b9050919050565b6000602082019050818103600083015261259181612212565b9050919050565b600060208201905081810360008301526125b181612278565b9050919050565b600060208201905081810360008301526125d1816122de565b9050919050565b600060208201905081810360008301526125f18161231e565b9050919050565b600060208201905081810360008301526126118161235e565b9050919050565b60006020820190508181036000830152612631816123c4565b9050919050565b600060208201905081810360008301526126518161242a565b9050919050565b6000604051905081810181811067ffffffffffffffff8211171561267f5761267e612864565b5b8060405250919050565b600067ffffffffffffffff8211156126a4576126a3612864565b5b601f19601f8301169050602081019050919050565b6000819050602082019050919050565b60008190508160005260206000209050919050565b600081519050919050565b600081519050919050565b6000602082019050919050565b600082825260208201905092915050565b600082825260208201905092915050565b600082825260208201905092915050565b600081905092915050565b6000819050919050565b82818337600083830152505050565b60005b8381101561277657808201518184015260208101905061275b565b83811115612785576000848401525b50505050565b600060028204905060018216806127a357607f821691505b602082108114156127b7576127b6612835565b5b50919050565b60006127c88261273f565b91507fffffffffffffffffffffffffffffffffffffffffffffffffffffffffffffffff8214156127fb576127fa612806565b5b600182019050919050565b7f4e487b7100000000000000000000000000000000000000000000000000000000600052601160045260246000fd5b7f4e487b7100000000000000000000000000000000000000000000000000000000600052602260045260246000fd5b7f4e487b7100000000000000000000000000000000000000000000000000000000600052604160045260246000fd5b6000601f19601f830116905091905056fea26469706673582212205cce646080b7944a01b6c8e375d1185b1ecb43e402d9c552ebaaf60cd652d4a264736f6c63430008000033",
  "linkReferences": {},
  "deployedLinkReferences": {}
}